:020000040800F2
:1000000020070020CD010008CB1400088113000850
:10001000C9140008D3020008B1170008000000004E
:10002000000000000000000000000000CF140008E5
:10003000D502000800000000CD140008D11400080B
:10004000E7010008E7010008E7010008E7010008F0
:10005000E7010008E7010008E7010008E7010008E0
:10006000E7010008E7010008E7010008E7010008D0
:10007000E7010008E7010008E7010008E7010008C0
:10008000E7010008E7010008E7010008E7010008B0
:10009000E7010008E7010008E7010008E7010008A0
:1000A000E7010008E7010008E7010008E701000890
:1000B000E7010008E7010008E7010008E701000880
:1000C000E7010008E7010008E7010008E701000870
:1000D000E7010008E7010008A5170008E70100088C
:1000E000E7010008E7010008E7010008E701000850
:1000F000E7010008E7010008E7010008E701000840
:10010000E7010008E7010008E7010008E70100082F
:10011000E7010008E701000835150008E7010008BD
:10012000E7010008E7010008E7010008E70100080F
:1001300000F002F800F03AF80AA090E8000C8244BF
:100140008344AAF10107DA4501D100F02FF8AFF29C
:10015000090EBAE80F0013F0010F18BFFB1A43F0A5
:1001600001031847C0160000E0160000103A24BF33
:1001700078C878C1FAD8520724BF30C830C144BF0C
:1001800004680C607047000000230024002500264E
:10019000103A28BF78C1FBD8520728BF30C148BFEA
:1001A0000B6070471FB51FBD10B510BD00F058F8AB
:1001B0001146FFF7F7FF01F00DFB00F076F803B4EE
:1001C000FFF7F2FF03BC00F07DF80000094880470C
:1001D00009480047FEE7FEE7FEE7FEE7FEE7FEE729
:1001E000FEE7FEE7FEE7FEE704480549054A064B41
:1001F000704700003315000831010008200100207D
:100200002007002020030020200300204FF00002E0
:1002100000B5134694469646203922BFA0E80C50FC
:10022000A0E80C50B1F12001BFF4F7AF090728BFD7
:10023000A0E80C5048BF0CC05DF804EB890028BF53
:1002400040F8042B08BF704748BF20F8022B11F07C
:10025000804F18BF00F8012B7047704770477047F8
:10026000754600F02BF8AE4605006946534620F06F
:100270000700854618B020B5FFF7B6FFBDE820405F
:100280004FF000064FF000074FF000084FF0000B52
:1002900021F00701AC46ACE8C009ACE8C009ACE805
:1002A000C009ACE8C0098D46704710B50446AFF3ED
:1002B00000802046BDE81040FFF781BF004870472E
:1002C000BC00002001491820ABBEFEE7260002005A
:1002D0007047FEE7704772B6FEE710B590F8211040
:1002E0000022022905D00421816380F8202001200A
:1002F00010BD01680B6823F00E030B6001680B68EA
:1003000023F001030B6090F84030C46B012101FA27
:1003100003F3636080F8211080F82020104610BDA0
:100320002DE9F05F90F821100024022903D0042168
:100330008163012485E001680A6822F00E020A60E8
:1003400001680A6822F001020A603F4E3E4FB21572
:10035000DFF8F4C0DFF8F090DFF8ECA0DFF8E8B0E9
:10036000DFF8E4E00168783F13011502ACF1640C9A
:10037000A9F15009AAF13C0AABF1280BAEF1140E19
:100380004FF48018B14227D9B9420ED0614512D03E
:1003900049451DD0514518D0594518D0714501D156
:1003A000424615E0294EB14201D1012210E0274E0C
:1003B0001436B14201D110220AE0244E2836B1424F
:1003C00006D0224A3C32914201D11A4600E02A4628
:1003D0001E49091F0A602BE0B94213D0614517D0AE
:1003E000494522D051451DD059451DD0714501D1F7
:1003F00042461AE0B14202D14FF0807215E0134E2E
:10040000B14201D1012210E0104E1436B14201D1A7
:1004100010220AE00D4E2836B14206D00B4A3C327B
:10042000914201D11A4600E02A46074980394A60C4
:10043000012180F82110002180F82010416B01B1CA
:1004400088472046BDE8F09F800002400804024033
:100450002DE9F84FDFF8C8910024A9F1040B2346D9
:100460000F2709F1040AABF1040ED1E00125A540E4
:1004700006EA0502AA4276D1DFF8A8C14E68A6EBCB
:100480000C0866452BD00DDC032E34D005DC36B3CA
:10049000012E19D0022E2FD11BE0112E16D0122EB4
:1004A0002AD119E0B8F5881F19D006DCB8F5803FCD
:1004B00015D0B8F5801F1FD111E0B8F5001F0ED080
:1004C000B8F5041F18D10AE0CB6815E0CB681B1DF6
:1004D00012E0CB6808330FE0CB680C330CE08B687C
:1004E0002BB1012B4FF0080303D0456104E0042336
:1004F00002E0056100E00023FF2A01D8064601E082
:1005000000F104064FEA840501D9A5F12005D6F8CB
:10051000008007FA05FC28EA0C0803FA05F548EA0A
:100520000508C6F800804D68ED0070D53E4DAE69F7
:1005300046F00106AE61AD6924F0030605F0010541
:1005400000953A4D06EB050CDCF80850A607360F6F
:1005500007FA06F825EA0805DFF8D480404503D1FC
:100560004FF0000825E052E0DFF8C880404502D196
:100570004FF001081DE0DFF8C080404502D14FF088
:10058000020816E0DFF8B480404502D14FF00308BE
:100590000FE0DFF8AC80404502D14FF0040808E0DE
:1005A000DFF8A080404502D14FF0050801E04FF090
:1005B000060808FA06F848EA0508CCF808804D68ED
:1005C000D9F80060ED024D4601D5164300E0964390
:1005D0002E604D68DAF80060AD02554601D516432D
:1005E00000E096432E604D68DBF80060AD035D4689
:1005F00001D5164300E096432E604D68DEF800609A
:10060000ED03754601D5164300E096432E60641C49
:100610000A681646E2407FF429AFBDE8F88F000073
:1006200008040140000011100010024000000140C9
:1006300000080140000C014000100140001401407E
:1006400000180140001C01408068084000D00120D3
:1006500070470AB1016170470904FBE701488068EF
:1006600070470000040000200248816802781144AD
:100670008160704704000020074810B5016841F010
:1006800010010160032000F075F80F2000F006F85B
:1006900000F024F8002010BD0020024070B50D4D80
:1006A00004464FF47A712878B1FBF0F00A490968E2
:1006B000B1FBF0F000F0DCFA48B9102C07D20022B0
:1006C0002146501E00F036F800206C6070BD0120FD
:1006D00070BD000004000020100000200C4808B588
:1006E000816941F001018161816901F0010100919D
:1006F000C16941F08051C161C06900F08050009033
:100700000448416821F0E06141F00071416008BD9A
:100710000010024000000140002809DB00F01F0229
:10072000012191404009800000F1E020C0F8001153
:1007300070470000F0B40E4B1B680C46C3F3022355
:10074000C3F10705042D00D90425191D072901D27D
:10075000002300E0DB1E012606FA05F1491E2140B8
:1007600099409E40761E16403143F0BC01F021B8FE
:100770000CED00E0064900F0070208684FF6FF03A1
:10078000184040EA0220034A104308607047000006
:100790000CED00E00000FA052DE9F0470F460500DA
:1007A00061D0434E306800F00700B84209D230688B
:1007B00020F0070038433060306800F00700B8428E
:1007C00051D128683B4C810712D5400703D560689A
:1007D00040F4E06060602878000703D5606840F46A
:1007E000605060606068A96820F0F00008436060B5
:1007F0002878C00728D06868012810D0216802280E
:1008000010D0890700292EDA616821F00301014325
:100810006160FFF723FF804641F288390DE02168CF
:100820008903EFE78901EDE7FFF718FFA0EB080167
:10083000494502D90320BDE8F0876068696800F087
:100840000C00B0EB810FEFD1306800F00700B84228
:100850000BD9306820F0070038433060306800F072
:100860000700B84201D00120E5E72878400705D508
:100870006068E96820F4E060084360602878000759
:1008800006D56068296920F4605040EAC1006060C4
:1008900000F038F86168084AC1F30311515CC840A0
:1008A0000649086006480068FFF7F8FE0020C2E726
:1008B00000200240001002400A180008100000202A
:1008C000080000200448054900684968044AC1F34B
:1008D0000221515CC8407047100000200010024007
:1008E0001A1800080448054900684968044AC1F319
:1008F000C221515CC8407047100000200010024027
:100900001A1800080E4A51680E4801F00C03042B17
:1009100011D0082B0FD10C48C1F38343C903C05C2D
:100920000AD55168084AC1F34041921E515C054AFC
:100930005043B0FBF1F07047044948437047000052
:100940000010024000127A00FA17000800093D006A
:100950002DE9F84F040070D02078C04DC00749D071
:100960006868C0F38100012807D06868C0F381007F
:10097000022809D16868C00306D52868800339D5E4
:1009800060680028E7D035E06068B0F5803F0BD0A4
:1009900010B1B0F5A02F11D0286820F48030286065
:1009A000286820F4802002E0286840F48030286025
:1009B000606890B1FFF752FE06460AE0286840F4EE
:1009C00080202860F0E700BFFFF748FE801B642806
:1009D00073D828688003F7D50CE0FFF73FFE064682
:1009E00005E000BFFFF73AFE801B6428F0D82868B6
:1009F0008003F7D420789A4E80074FF001094FF01A
:100A0000000839D5686810F00C0F07D06868C0F38B
:100A10008100022809D16868C00306D428688007CD
:100A200014D52069012808D110E02069B0B1C6F8BA
:100A30000090FFF713FE074605E00AE1FFF70EFE00
:100A4000C01B0228C4D828688007F7D528686169C8
:100A500020F0F80040EAC10028600DE0C6F80080F0
:100A6000FFF7FCFD074604E0FFF7F8FDC01B022876
:100A700023D828688007F7D4207800072CD5794838
:100A8000A169D9B1C0F80090FFF7E8FD074604E07E
:100A9000FFF7E4FDC01B02280FD8686A8007F7D56E
:100AA00071484FF4FA510068B0FBF1F0009000BFBC
:100AB0000098411E0091FAD20EE080E0C0F800805C
:100AC000FFF7CCFD074604E0FFF7C8FDC01B022876
:100AD00075D8686A8007F7D42078400760D5E86940
:100AE0000027C00008D4E86940F08050E861E86958
:100AF000012700F0805000905C480168C90513D4BC
:100B00000168834641F480710160FFF7A7FD8246CA
:100B100006E000BFFFF7A2FDA0EB0A0064284ED854
:100B2000DBF80000C005F5D5E06801280AD008B15F
:100B3000052813D0286A20F001002862286A20F0D6
:100B4000040002E0286A40F001002862E06841F2F7
:100B5000883B98B1FFF782FD82460BE0286A40F09F
:100B600004002862EEE700BFFFF778FDA0EB0A0162
:100B700059455AD8286A8007F6D50CE0FFF76EFD74
:100B8000824605E0FFF76AFDA0EB0A0159454CD803
:100B9000286A8007F6D41FB1E86920F08050E86128
:100BA000E06988B36968C1F38101022944D0022851
:100BB000C6F8608004D0FFF751FD044638E034E009
:100BC000FFF74CFD074604E0FFF748FDC01B022875
:100BD0002BD828688001F7D4206AB0F5803F05D172
:100BE0006868A16820F4003008436860D4E908010F
:100BF0000843696821F4741108436860C6F860907E
:100C0000FFF72CFD044606E025E000BFFFF726FDB8
:100C1000001B022809D828688001F7D51BE000BF17
:100C2000FFF71CFD001B022802D90320BDE8F88F46
:100C300028688001F4D40EE00128F7D06868226AA1
:100C400000F48031914204D1616A00F4701088424E
:100C500001D00120EAE70020E8E700000010024090
:100C60000000424280044242100000200070004018
:100C700010B5401EB0F1807F01D3012010BD4FF0B0
:100C8000E02460610F21601700F093FD0020A06157
:100C900007202061002010BD7047704770B590F8A4
:100CA0003C20012A2CD0012480F83C40022280F80C
:100CB0003D2003685A689D6822F070060A68324336
:100CC0005A60104B02689A420ED00F4B9A420BD0DA
:100CD000B2F1804F08D00D4B9A4205D00C4B9A428E
:100CE00002D00C4B9A4204D1496825F08003194385
:100CF000916080F83D40002180F83C10084670BDAE
:100D0000022070BD002C014000340140000400406E
:100D100000080040000C004010B5040003D094F817
:100D20003D0010B107E0012010BD002084F83C0018
:100D3000204600F01FF8022084F83D00211D2068A5
:100D400000F0FEFB012084F8460084F83E0084F8A1
:100D50003F0084F8400084F8410084F8420084F8A1
:100D6000430084F8440084F8450084F83D000020E6
:100D700010BD000008B500680B49884212D10B482D
:100D8000C16941F01001C161C069002200F010008A
:100D9000009011463620FFF7CDFCBDE80840362014
:100DA000FFF7BABC08BD0000001000400010024070
:100DB00090F83D10012901D001207047022180F8F0
:100DC0003D100168CA6842F00102CA6000680E491D
:100DD00088420ED00D4988420BD0B0F1804F08D028
:100DE0000B49884205D00B49884202D00A49884203
:100DF00004D1816801F00701062903D0016841F0A0
:100E00000101016000207047002C014000340140C6
:100E10000004004000080040000C0040704770B51E
:100E20000446006801694FF00005C943890715D4DD
:100E3000C168C943890711D4E91E016101202077E7
:100E4000206880698007204602D0FFF7E7FF04E0B2
:100E500000F098F8204600F096F8257720680169A0
:100E6000C943490717D4C168C943490713D46FF070
:100E700004010161022020772068806910F4407F1E
:100E8000204602D0FFF7CAFF04E000F07BF82046BE
:100E900000F079F8257720680169C943090716D45D
:100EA000C168C943090712D46FF008010161042029
:100EB00020772068C0698007204602D0FFF7AEFF88
:100EC00004E000F05FF8204600F05DF82577206828
:100ED0000169C943C90617D4C168C943C90613D4F7
:100EE0006FF010010161082020772068C06910F4BC
:100EF000407F204602D0FFF791FF04E000F042F867
:100F0000204600F040F8257720680169C943C907E9
:100F100008D1C168C943C90704D1891E01612046AF
:100F200000F032F820680169C943090609D4C16894
:100F3000C943090605D46FF0800101612046FFF71F
:100F4000ABFE20680169C943490609D4C168C94399
:100F5000490605D46FF040010161204600F062F8B7
:100F600020680169C94389060BD4C168C943890651
:100F700007D46FF0200101612046BDE87040FFF703
:100F80008CBE70BD7047704770B5006821498842BB
:100F90003DD121480168491C0160052937D1002550
:100FA0001E4E056004213046FFF74EFB1C4C082105
:100FB00020713046FFF748FB207310213046FFF7C1
:100FC00043FB2075002002225FF0010154F830300D
:100FD00023B1012B09D0022B16D110E004EBC00382
:100FE0001B798BB944F830100EE004EBC0031B7979
:100FF00013B944F8302007E044F8305004E004EB23
:10100000C0031E79012E03D0401C0328DEDB70BD17
:101010005971F1E700100040000000200018014065
:10102000140000207047704770470000F8B5016851
:1010300004460868CA684B6910F00F0F4FF00005AE
:1010400059D003F0010602F49077374365D0C10709
:1010500005D0D10503D5616C41F001016164410700
:1010600005D5D90703D0616C41F0020161648107A5
:1010700005D5D90703D0616C41F004016164010713
:1010800007D502F02001314303D0616C41F0080123
:101090006164616C00293AD0800604D5900602D5BF
:1010A000204600F0C2FA20684069616CC0F38010ED
:1010B000090700D460B3204600F090FA2068406928
:1010C000400621D52068143050E8001F21F040016F
:1010D00040E80012002AF5D1E06BA8B16D494163E8
:1010E000E06BFFF71DF9002811D0E06B416B01B0F8
:1010F000BDE8F040084783060FD593060DD520467E
:10110000BDE8F84000F091BA2046FFF78DFFF8BD2A
:101110002046FFF789FF6564F8BD266B2023012E6A
:101120007CD1C6067AD5D60678D50868486800907E
:1011300048694FF00206400640D5E16B08684068F8
:101140000004000CE8D0A28D8242E5D9E0858869D0
:1011500020282DD020680C3050E8001F21F4807129
:1011600040E80012002AF5D12068143050E8001F32
:1011700021F0010140E80012002AF5D12068143066
:1011800050E8001F21F0400140E80012002AF5D18C
:1011900084F84230256320680C3050E8001F21F0AD
:1011A000100140E80012002AF5D1E06BFFF795F836
:1011B0006663A08DE18D401A81B22AE0A08DE18D99
:1011C000401A81B2E08D0028A6D00029A4D0226860
:1011D0000C3252E8000F20F4907042E80007002F14
:1011E000F5D12068143050E8002F22F0010240E8C9
:1011F0000027002FF5D184F84230256320680C3099
:1012000050E8002F22F0100240E80023002BF5D117
:1012100066632046FFF707FFF8BDFFE705062BD5FD
:10122000150629D594F841002128F5D1A068B0F51C
:10123000805F01D12069B0B1206A411C2162216820
:1012400000784860E08C401E0004000CE084E3D18C
:101250002068C16821F08001C1602068C16841F048
:101260004001C160D8E7206A0088C0F308004860E8
:10127000206A801C2062E5E74006CDD55006CBD51C
:10128000CA68204622F04002CA6084F8413000F06B
:1012900076F8C1E7CD15000870B5040004D094F8C5
:1012A0004100002510B106E0012070BD84F84050D7
:1012B000204600F023F8242084F841002068C1680B
:1012C00021F40051C160204600F010FA2068016945
:1012D00021F4904101612068416921F02A014161B6
:1012E0002068C16841F40051C1606564202084F821
:1012F000410084F842006563002070BD30B585B0C0
:1013000000240094019402940394006818498842D0
:101310002BD11848C16941F40031C161C16901F4A0
:1013200000310491816941F0040181618069124DAD
:1013300000F004000490042000900220019003209B
:10134000039069462846FFF783F80820CDE900049A
:10135000694628460294FFF77BF8002211462620B2
:10136000FFF7E8F92620FFF7D7F905B030BD0000F8
:1013700000440040001002400008014070477047E0
:10138000FEE7000010B5012220210548FFF761F9B2
:101390000122BDE8104020210248FFF75AB90000A1
:1013A00000180140000C01402DE9F04385B00024F5
:1013B00023480094019402940394816941F0400110
:1013C0008161816901F040010491816941F004016A
:1013D0008161816901F004010491816941F0080192
:1013E00081618069DFF85C8000F0080004900122D0
:1013F00020214046FFF72DF9DFF84C9001222021F3
:101400004846FFF726F91C2001258DE83100694682
:101410004046FFF71DF82026022703970096CDE9E6
:10142000015469464046FFF713F803970096CDE94B
:10143000015469464846FFF70BF805B0BDE8F08354
:101440000010024000180140000C01401CB50024AF
:101450000E4800940C490194016040F2CF21C0E98C
:10146000011463218461C160FFF756FC08B1FEF7E7
:1014700032FF0094694605480194FFF70FFC0028ED
:1014800001D0FEF728FF1CBD001000402C000020FA
:101490000C4810B50A4901604FF4E1314160002168
:1014A00081600C22C160C0E904128161C161FFF753
:1014B000F3FE002803D0BDE81040FEF70CBF10BDBE
:1014C0000044004074000020FEE7FEE770477047CC
:1014D000FFF7CAB830B58FB028216846FEF796FEF0
:1014E00014210AA8FEF792FE01210804CDE900109C
:1014F0000024029402250491CDE907504FF4E01036
:1015000009906846FFF724FA08B172B6FEE70F208B
:10151000CDE90A054FF48060CDE90C4002210AA80C
:101520000E94FFF739F9002801D072B6FEE70FB02C
:1015300030BD70470148FFF772BC00002C0000204E
:10154000F0B502681C4B1D4D1D4E1E4F1E4C4FF03A
:10155000804C984209D0A04207D0604505D0A842EF
:1015600003D0B04201D0B84204D122F0700E4A68D4
:1015700042EA0E02984209D0A04207D0604505D049
:10158000A84203D0B04201D0B84203D122F4407542
:10159000CA682A434D6922F080022A4302608A68A1
:1015A000C2620A688262984201D0A04201D10969F0
:1015B000016301214161F0BD002C014000040040A5
:1015C00000080040000C00400034014010B5406AA3
:1015D0000021C185C184FFF727FD10BD01680C31D2
:1015E00051E8002F22F4907241E80023002BF5D13E
:1015F0000168143151E8002F22F0010241E8002374
:10160000002BF5D1016B012909D101680C3151E89A
:10161000002F22F0100241E80023002BF5D12021F9
:1016200080F8421000210163704708B590F842101D
:10163000222901D0022008BD82684FF480539A42CB
:1016400001D1016921B1816A9A421BD04AB10AE0F5
:101650000268816A5268C2F308020A80816A891CA2
:1016600008E0026972B10268526802F07F020A70F3
:10167000816A491C8162C18D491E0904090CC1851A
:1016800003D01BE002685268F1E70168CA6822F0E3
:101690002002CA600168CA6822F48072CA600168C8
:1016A0004A6922F001024A61202180F8421000219B
:1016B0004163026B012A03D0FFF760FE002008BDE2
:1016C000016301680C3151E8002F22F0100241E85B
:1016D0000023002BF5D101680A68D20602D50A68FA
:1016E00049680091818DFFF79EFCE7E770B50446DD
:1016F00000680169E26821F44051114301612169E8
:10170000A0680843616908432168CA6841F20C6314
:101710009A430243CA6020684169A26921F440717A
:10172000114341611E492068884202D1FFF7DAF86F
:1017300001E0FFF7C7F800EBC00101EB00126068A1
:1017400064218000B2FBF0F3B3FBF1F36FF01806F5
:101750007343B2FBF0F5B2FBF0F605EB83053223E1
:1017600003EB0515B5FBF1F5B6FBF1F605F0F00559
:1017700005EB0615B2FBF0F6B2FBF0F0B0FBF1F0B2
:101780006FF01802504306EB800003EB0010B0FB33
:10179000F1F0216800F00F002844886070BD00005F
:1017A000003801400148FFF741BC000074000020F0
:1017B000FEE70907090E002804DB00F1E02080F8AD
:1017C0000014704700F00F0000F1E02080F8141DB5
:1017D00070470000FEF750FFFFF77CFEFFF7E4FDC7
:1017E000FFF734FEFFF754FE0248FFF7E1FAFFF778
:1017F000C9FDFEE72C0000200102020304050607D4
:1018000008090A0B0C0D0E0F10100000000000005C
:10181000000001020304060708090000000001029D
:101820000304000044180008000000201400000019
:101830006C01000858180008140000200C07000074
:1018400088010008000000000100000010000000F6
:08185000000000000024F40078
:0400000508000131BD
:00000001FF
